:0200000460009A
:100000004643464200000156000000000103030081
:1000100000000000000000000000000000000000E0
:1000200000000000000000000000000000000000D0
:1000300000000000000000000000000000000000C0
:1000400000000000010408000000000000000000A3
:100050000000800000000000000000000000000020
:100060000000000000000000000000000000000090
:100070000000000000000000000000000000000080
:10008000EB04180A063204260000000000000000FD
:10009000050404240000000000000000000000002F
:1000A0000000000000000000000000000000000050
:1000B0000604000000000000000000000000000036
:1000C0000000000000000000000000000000000030
:1000D00020041808000000000000000000000000DC
:1000E0000000000000000000000000000000000010
:1000F0000000000000000000000000000000000000
:10010000D8041808000000000000000000000000F3
:100110000204180804200000000000000000000095
:1001200000000000000000000000000000000000CF
:10013000600400000000000000000000000000005B
:1001400000000000000000000000000000000000AF
:10015000000000000000000000000000000000009F
:10016000000000000000000000000000000000008F
:10017000000000000000000000000000000000007F
:10018000000000000000000000000000000000006F
:10019000000000000000000000000000000000005F
:1001A000000000000000000000000000000000004F
:1001B000000000000000000000000000000000003F
:1001C000000100000010000001000000000000001D
:1001D000000001000000000000000000000000001E
:1001E000000000000000000000000000000000000F
:1001F00000000000000000000000000000000000FF
:10020000FFFFFFFFFFFFFFFFFFFFFFFFFFFFFFFFFE
:10021000FFFFFFFFFFFFFFFFFFFFFFFFFFFFFFFFEE
:10100000D10020434D1600600000000000000000E9
:101010002010006000100060001803600000000055
:10102000000000600024030000000000FFFFFFFF3D
:10103000FFFFFFFFFFFFFFFFFFFFFFFFFFFFFFFFC0
:10104000FFFFFFFFFFFFFFFFFFFFFFFFFFFFFFFFB0
:10105000FFFFFFFFFFFFFFFFFFFFFFFFFFFFFFFFA0
:10106000FFFFFFFFFFFFFFFFFFFFFFFFFFFFFFFF90
:10140000814205D051F8043B40F8043B8242F9D8B0
:10141000704700BF044A05494FF0000342F8043BFF
:101420009142FBD8704700BFC0660020E0D3002087
:101430002DE98848BFF34F8F00BF00BF00BF00BF3A
:1014400000F018F9684B0822C3F8542100BF00BF10
:1014500000BF00BF00BF00BF00BF00BF00BF00BF94
:1014600000BF00BF00BF00BF00BF00BF5F4A6049B0
:101470006048FFF7C5FF604A60496148FFF7C0FF59
:10148000604CFFF7C7FF4FF470004FF0E0210023DE
:101490005D4AC1F8880D44F823200133B02BFAD1FE
:1014A0005A4B80215A4A03F8011B9342FBD14FF05B
:1014B000E0254D4E4FF08039DFF884B1DFF884A18C
:1014C0004FF0FF31C5F8084D0027C6F80491C6F863
:1014D00000B1C6F8F490C6F8F0A0D5F8243DDFF8C6
:1014E000688143F4E0234B4AC5F8243DD8F81C300A
:1014F00023F07F0343F04003C8F81C30D8F82430B1
:1015000023F07F0343F04003C8F824309166D1668E
:101510001167516700F0B6F83F4B4049A363404B59
:10152000E36363236B610323AF612B613D4BC5F81C
:10153000203DD5F8FC3D43F08073C5F8FC3D3A4BA7
:101540001A6842F001021A605B680B6000F0E4FA6E
:10155000C6F804913548C6F800B1C6F8F490C6F84C
:10156000F0A000F075FCD8F86C10314B314A41F412
:101570004051C8F86C101F60C3F80871C3F81871A7
:10158000C3F82871C3F83871936BDB0708D442F6AF
:101590001563294951651365936B43F00103936308
:1015A000244A264C936843F00113936000F0F2F84C
:1015B00000F016FC00F048FC00F0DCFA00F05CF8EB
:1015C0002368132BFCD900F06DFB2368B3F5967FDD
:1015D000FBD300F055F800F051F800F04DFC00F09E
:1015E00043FC30BFFDE700BF00800D40F88E0200D5
:1015F000A81F006000000000C0660020A4AE0260CA
:101600000000002000640020D58C010000E400E010
:10161000A0E400E000C00A403D84010068D300203F
:101620004184010000002020001000E00046C32398
:101630000040084000400D400000C0566CD3002020
:101640001B1018200C0D111300C00F40054B4FF458
:101650002A01054A05485A641864054A9963954663
:10166000FFF7E6FE00C00A40FFAFAAAA070020006D
:1016700000000520704700BF704700BF704700BFE3
:1016800000BF704710B44FF0E02300211024314810
:10169000C3F8941DC3F89C4D1124C3F8A00D2E4827
:1016A000C3F89C4D1224C3F8A00D2C48C3F89C4DE0
:1016B0002B4AC3F8A00D2B4C42F015022A48C3F860
:1016C0009C4DC3F8A00D294C2948C3F89C4DC3F884
:1016D000A00D284CC3F89C2D2748284AC3F8A04DDC
:1016E000C3F89C0DC3F8A02D02F5A022244C0C32A7
:1016F0002448C3F89C4DC3F8A02D234AC3F89C0D81
:10170000224CC3F8A02D02F14062C3F89C4D204842
:10171000C3F8A02D0C32C3F89C0DC3F8A02D00BF58
:1017200000BF00BF00BF00BF0122C3F8942DBFF36C
:101730004F8FBFF36F8FC3F8501FBFF34F8FBFF3AF
:101740006F8FD3F8142D5DF8044B42F44032C3F888
:10175000142D70473F0000102500080709001000F5
:10176000E0D3002013002000210002071400002015
:1017700025000813090000101600202027000B1375
:1017800017000040180000602F000B0719000070C0
:101790001A000080F0B5B84B1822B84E0120B84F9F
:1017A00083B0C3F85C62B749C3F86072B64DC3F842
:1017B0006462A6F53046B54CC3F86862C3F86C5253
:1017C000C3F87052C3F87452C3F8785248F20C75DB
:1017D000DA661A675A679A67DA67C3F88020C3F82F
:1017E0008420C3F88820C1F82C03A94AC1F830032B
:1017F000C1F83403C1F83803C1F83C03C1F8500301
:10180000A169A44B0A40A448A4491343A44AA36174
:10181000D4F8843043F00C03C4F884304FF0FF3424
:10182000036843F00203036003682B404FF4005544
:101830001A439C4B026044608A689B4C13409B4A4D
:1018400043F000538360C36823F07803C360036AE6
:10185000134023430362036A1340954A2343954C84
:1018600043628262C2620022D1F8B83023F03F03A3
:1018700043F00103C0F8B830D1F8BC308E4923F0F2
:101880003F0343F00103C0F8BC3040F2056302613E
:1018900005660467C0F88030456644670224C0F8D6
:1018A0008430036823F0020303608161834B844921
:1018B000C46143F8042B8B42FBD1774A136843F091
:1018C00001031360136813F00103FBD17A4802216E
:1018D00040F2F564906140F29940D16140F2664176
:1018E000C2F8004242F20144C2F810127549C2F82F
:1018F0002002C2F8301240F235417348C2F8344237
:10190000C2F84012714CC2F8500242F201207049F4
:10191000C2F854120121C2F86042C2F864025E4863
:10192000C2F8A030C2F8A430C2F8B0104369DA0798
:10193000FCD5012300244FF4803257494361C0F89D
:10194000A040C0F8A420C0F8B0304B69DB07FCD53C
:10195000012300244FF400304F4A4B61C1F8A040EE
:10196000C1F8A400C1F8B0305369DF07FCD50123EA
:101970000024584848495361C2F8A040C2F8A40066
:10198000C2F8B0304B69DE07FCD5D1F8003145F61E
:101990000D5221209BB24861934265D100244FF43F
:1019A000802201233C48C1F8A040C1F8A420C1F81E
:1019B000B0304369DD07FCD501234FF4000400215A
:1019C000354A4361C0F8A040C0F8A410C0F8B03058
:1019D0005369DC07FCD501234FF400044FF4803039
:1019E0002D495361C2F8A040C2F8A400C2F8B0303B
:1019F0004B69D807FCD501234FF400044FF40030A5
:101A0000254A4B61C1F8A040C1F8A400C1F8B0302C
:101A10005369D907FCD501234FF400042D481E4912
:101A20005361C2F8A040C2F8A400C2F8B0304B69BC
:101A3000DA07FCD5D1F8003145F60D5221209BB2D2
:101A40004861934250D008254FF4000422490020F9
:101A5000224B234A009015705A1A01232148224430
:101A600000F0FEF903B0F0BD1E4B0022C3E90022D6
:101A7000C3E9022203B0F0BD00801F40F9B00100AD
:101A8000F910010000841F40F970010000C00F40F0
:101A9000FFFCFF1F000300A000402A4000802A40F6
:101AA0001200FFFFFF37F7004000008000FFF07CCE
:101AB000FF000F8363000200F05AF05A00422A40F0
:101AC00000432A409F041830EB06180A3806180A0B
:101AD00006320126040003000000007000000070C0
:101AE00095D30020A4D200204FF400044FF48022AC
:101AF00001230848C1F8A040C1F8A420C1F8B030C3
:101B00004369DB07FCD5012310254FF08074436146
:101B10009CE700BF00402A40F0B4154A40274FF42C
:101B200080314FF480564FF400554FF4404443F257
:101B30004200136913F0020F0ED113F4005F0FD0AF
:101B400013F4805F0ED0002BF3DA13F4803F0BD137
:101B50005B060BD5F0BC7047946151619061E8E77A
:101B60005561E6E75661E4E79161E2E75761E0E736
:101B700000800D403F4A03203F49F3EE095AD2F856
:101B800080304FF0000C9FED3D6A23F001039FED84
:101B90003C5A30B4C2F88030C2F89000D1F8E0105E
:101BA000384DCBB2384C39482B6007EE903A0B0DCC
:101BB000C1F30B21F8EEE77A06EE903A07EE101A21
:101BC000334BB8EEC77A2160F8EEE66A314937EE5A
:101BD000C66A37EEC55A76EEC76A77EEE57A26EE24
:101BE000266AC3ED006A25EE265AD2F8803067EEE9
:101BF000A64AC0ED007AC6EE275A274885EE276A26
:101C0000C4EEA76A75EE875AFCEEE55A36EE076A0F
:101C100015EE904ABCEEC66A43EA045376EE877A24
:101C2000C2F8803016EE103AD2F89041FCEEE77A16
:101C300001EA0341214317EE903AC2F89011C3F331
:101C40000B03D2F890110B431449C2F89031D2F82B
:101C5000803043F00203C2F88030114B80F840C05E
:101C6000C1F840314FF0E023012230BCC3F8082115
:101C7000704700BF00810D4000441F400000AA4291
:101C80000000B44258D3002054D300205CD300207D
:101C900060D300200000FF0F00E400E0006400209B
:101CA000BD8E0100314B40F6617210B5C3F82021A2
:101CB00040F2044400F0C4F82D4A2E49D2F8803096
:101CC0002D4843F00303C2F880302C4BC1F860412B
:101CD00002681A4203D1D1F8A8319A071BD0254ACD
:101CE0004FF00041244B5963D2F8403143F00203D6
:101CF000C2F84031D2F840319B07FBD44FF400309A
:101D00004FF0E0211C4B4FF00042C1F88C0219202B
:101D10009A6300F0A1F8184A4FF08040154C00215A
:101D200090630A20164B11604FF42072C4F8A8018A
:101D3000184600F09DF84FF4800203464FF48100EE
:101D400040F243111860C4F858311A640D4B0E4A22
:101D5000C4F84811C3F804224FF0E0224FF40031D8
:101D60000123C2F80C11C4F8403110BD00800D40B1
:101D700000C00F4000002E4000900D40001C1E00CF
:101D80000000002000640020A590010008B50E4B63
:101D90001B6E9B0700D4FBBE72B60C4B00200C4A96
:101DA000C3F8400103F160430A49A3F55F231164BE
:101DB0009D46BFF34F8F4FF400130748074ADB6976
:101DC00002609B68984700BF00441F4000002E40FF
:101DD00000C00A400300200000802020000012EB19
:101DE000104BA020104AD96E41F4403110B4D9668E
:101DF00040F23764D96E41F44071D96654649064FE
:101E0000936C1B06FCD4094A40F23761A02351644D
:101E10009364936C13F08003FBD1054A13705DF853
:101E2000044B704700C00F4000400C4000800C4045
:101E300094D30020F8B500BFF8BC08BC9E4670479C
:101E40005FF800F0159801005FF800F099A101001B
:101E50005FF800F0B58601005FF800F0A589010089
:101E60005FF800F0FDA201005FF800F0898B01002F
:101E70005FF800F0ED4B02005FF800F0E94C020063
:101E8000450000003D1A00008D210000794500004A
:101E90004948010079790100898601008112020018
:101EA00016035500530042002000530065007200E5
:101EB000690061006C0000001803540065006500B3
:101EC0006E00730079006400750069006E006F0099
:101ED0000403090409026200030100C032080B0078
:101EE00002020201000904000001020201000524AF
:101EF0000010010524010101042402060524060046
:101F0000010705820310001009040100020A000005
:101F10000007050302400000070584024000000995
:101F200004020002FF6AFF0007058102400001076A
:101F3000050102400001000009026200030100C027
:101F400032080B0002020201000904000001020233
:101F500001000524001001052401010104240206EA
:101F6000052406000107058203100005090401008D
:101F7000020A0000000705030200020007058402B0
:101F80000002000904020002FF6AC700070581027F
:101F90000002010705010200020100000A0600021A
:081FA000EF0201400100000006
:101FA8000000000000000000000000000000000029
:101FB8000000000000000000000000000000000019
:101FC8000548064B1B1AD90F01EBA301491002D093
:101FD800034B03B118477047C0660020C066002055
:101FE8000000000008B5054B1BB105490548AFF3D3
:101FF8000080BDE80840FFF7E3BF00BF0000000015
:10200800C4D20020002403602DE9F0431D4D83B0A5
:1020180001F05CFB1C4C1D4F40F2EE282E68DFF8E7
:10202800789019F0ADFF2378F3B13B78DB071BD527
:102038002B68D9F800209B1A0E2B15D914F0FCFD3B
:102048000368DB689847124902F0FCFB00224FF452
:10205800E1336846CDE9002301F08CFC0D4801F01E
:1020680003FB03B0BDE8F0832B6822789B1B2AB1E1
:10207800B3F5FA6FE2D819F083FFD2E74345FAD9EE
:10208800DCE700BF6CD300209DD300209CD3002048
:10209800285A0020145200207CD3002008B501F0F3
:1020A80049FBBDE8084001F0ABBB00BF014B036032
:1020B800704700BF003500200E4B10B5044640F8AD
:1020C800083B12F08BFA002304F13800C4E9063308
:1020D800C4E90833C4E90A33C4E90C3313F080FBBC
:1020E80004F1900013F058FF04F1D80013F054FFE6
:1020F800204610BD30360020014B0360704700BFFA
:102108009C360020014B0360704700BF0837002051
:10211800014B0360704700BFEC360020014B0360A1
:10212800704700BF2437002010B5044602F06EFB4C
:10213800204610BD21B1044A4B68C0E9002370470E
:10214800014BC0E900317047C035002010B5044686
:1021580049B104310346074A03C943F8042B83E80D
:102168000300204610BD00F0B3F9024B204623605F
:1021780010BD00BFD83500200CB470B582B0002661
:1021880006AB067053F8042B01938AB105460C463A
:1021980024F038F90028254405F8016C0EDB844248
:1021A8008CBF0020012002B0BDE8704002B070472B
:1021B800022002B0BDE8704002B07047042002B0AF
:1021C800BDE8704002B0704770B5002606706AB16D
:1021D80004460D4624F016F900282C4404F8016C36
:1021E80006DBA84234BF0020012070BD022070BD6C
:1021F800042070BD334A2DE9F041847904FB02F2D2
:10220800E4B104F2B27C40F2B3732F4D2F4E304F3D
:10221800DFF8C8E09C4505FB03F10FD013F0030F6E
:1022280003F10103F6D1B6EBB10F02D3BEEB311FB8
:10223800F0D39C453A4405FB03F1EFD190F805E053
:10224800BEF1010F29DD04F2B274224E6425224941
:10225800A6FB04364FF4C873DFF884807709F609C3
:1022680005FB17471A4D03FB164604F00304012328
:1022780007E0013391F800C00131734505FB0C22DA
:102288000BD0022BF5D1002CF3D10FB9002EF0D1D1
:102298000133424401317345F3D143784FF461640B
:1022A8008178C3EB031305789B0004FB01330179A4
:1022B800074C58194B1E002104FB03001044BDE8CD
:1022C800F08100BF8033E101295C8FC2285C8F0256
:1022D800805101001F85EB51880400200AD7A30014
:1022E800803B2600F8B51D4C1D4D23682A681D4EFD
:1022F8009B1AB3F57A7F2FD331680131236802F531
:102308007A72084601319B1AB3F57A7FF6D23060AB
:102318002A60154F3B6883420FD8144B1B6863B182
:10232800984701430BD0124B22681B682A6002228F
:10233800034430603B600F4B1A700021F8BD0D4913
:102348000B4B0A783068003A1B6818BF0122034417
:102358000A7000213B60F8BD3068DAE76CD30020D2
:1023680038BA002048BA00203CBA0020BCD200206D
:10237800385A00208ED3002010B5039C864610489A
:10238800632C0371CCBFA4F2B27C04F11E0C029C36
:10239800027080F806C0447180F802E04170FFF7CF
:1023A80029FF084B08491B68086003440749084A85
:1023B80002200B6012680749074B08701A6010BDAD
:1023C80040BA0020385A002048BA00203CBA002001
:1023D8006CD300208ED3002038BA002008B5FFF750
:1023E80081FF014B187808BD8ED30020704700BFCD
:1023F80000697047C068704710B50446142118F08A
:1024080037FC204610BD00BF0846014900F040BF18
:1024180078230020F8B5036804462B4F0E46DB6886
:10242800BB4214D1C06800283AD0A2688318DD786E
:10243800997845EA01255B7845EA0345835C0020E5
:1024480045EA03653560A3680433A360F8BD98477F
:1024580030B32368DB68BB422BD0204698472368FB
:10246800A268DB681044BB42C57824D02046984750
:10247800A2681044837845EA03252368DB68BB42D9
:102488001CD020469847A2681044437845EA034583
:102498002368DB68BB4214D020469847A268CDE782
:1024A8004FF4B971094801F081F82368DB68BB4231
:1024B800D3D1E068B9E7E0688318B9E7E068831822
:1024C800B9E7E068BAE700BF55040000F40A002045
:1024D800014B0360704700BF442D0020704700BFC8
:1024E800002202498260C0E900127047883100204A
:1024F800704700BF0368194A9B68934270B5044649
:102508000D46466814D1006986420FD22368144EDE
:10251800DB68B3420ED1E068B0B163680022C554ED
:1025280010466368A2600133636070BD022070BD0D
:102538009847E9E72046984730B12368DB68B342FB
:102548000AD020469847E8E74321064801F02EF8CC
:102558002368DB68B342F4D1E068DEE75104000089
:1025680055040000F40A0020F8B5D0E90023044619
:102578000D4692685E1C1E4B9A421ED10069864227
:1025880019D223681B4EDB68B3421BD1E06820B325
:102598002F0A6368EDB2C7542368DB68B3420ED1D3
:1025A800E068636800221844457010466368A260BA
:1025B80002336360F8BD0220F8BD9047DFE720468C
:1025C8009847EEE72046984738B123682F0ADB681A
:1025D800B3420BD020469847DBE75B21064800F062
:1025E800E5FF23682F0ADB68B342F3D1E068D0E740
:1025F8005104000055040000F40A0020F8B5D0E9A1
:10260800002304460D469268DE1C2C4B9A4233D1B7
:10261800006986422ED22368294EDB68B34230D146
:10262800E06800283ED02F0E6368C754C5F30747FB
:102638002368DB68B3422FD1E068636818444770A9
:10264800C5F307272368DB68B34228D1E0686368CD
:10265800EDB2184487702368DB68B3420ED1E06896
:10266800636800221844C57010466368A26004338A
:102678006360F8BD0220F8BD9047CAE72046984736
:10268800EEE72046984768B123682F0EDB68B3420F
:1026980011D020469847C7E720469847CDE72046FF
:1026A8009847D4E77621074800F080FF23682F0E6B
:1026B800DB68B342EDD1E068B6E700BF5104000023
:1026C80055040000F40A0020F8B5D0E900230446B8
:1026D8000D469268DE1C2C4B9A4233D10069864223
:1026E8002ED22368294EDB68B34230D1E068002837
:1026F8003ED02F0E6368C754C5F307472368DB68CD
:10270800B3422FD1E068636818444770C5F30727C0
:102718002368DB68B34228D1E0686368EDB21844E7
:1027280087702368DB68B3420ED1E06863680022D3
:102738001844C57010466368A26004336360F8BD2E
:102748000220F8BD9047CAE720469847EEE72046A2
:10275800984768B123682F0EDB68B34211D0204632
:102768009847C7E720469847CDE720469847D4E7DB
:102778008521074800F01AFF23682F0EDB68B34253
:10278800EDD1E068B6E700BF510400005504000031
:10279800F40A00202DE9F0411D46436816464B4ACD
:1027A800DF1D036804469B6893425FD10069874236
:1027B80059D22368464FDB68BB425CD1E0680028E9
:1027C80077D04FEA1568636800F80380C5F30748B7
:1027D8002368DB68BB425AD1E0686368184480F814
:1027E8000180C5F307282368DB68BB4252D1E06843
:1027F8006368EDB2184480F802802368DB68BB4246
:102808004BD1E06863681844C570350E2368DB68EF
:10281800BB4245D1E068636818440571C6F30745B3
:102828002368DB68BB423ED1E068636818444571A1
:10283800C6F307252368DB68BB4237D1E0686368C5
:10284800F6B2184485712368DB68BB4210D1E06892
:10285800636800221844C67110466368A260083392
:102868006360BDE8F0810220BDE8F08198479EE7EB
:1028780020469847ECE720469847D0B123684FEAAE
:102888001568DB68BB421ED0204698479BE7204668
:102898009847A2E720469847AAE720469847B1E715
:1028A80020469847B7E720469847BEE7204698470E
:1028B800C5E79621074800F079FE23684FEA1568B6
:1028C800DB68BB42E0D1E0687DE700BF510400004F
:1028D80055040000F40A002010EE101AFFF78EBE0F
:1028E80003681E4A9B68934270B504460E464568C5
:1028F80022D1006985421DD22368194DDB68AB429D
:102908001CD1E068F0B12368DB6866B9AB4221D11D
:10291800E06863680022C2546368002201331046ED
:10292800C4E9013270BDAB4211D1E0686368FF228F
:10293800C254F1E7022070BD9847DBE7204698476C
:102948000028E0D1D021074800F030FEDBE7204620
:102958009847EBE720469847DBE700BF51040000A3
:1029680055040000F40A00202DE9F041884691B290
:1029780015460446FFF7F8FD0646D0B96368134AC2
:10298800EF1823689B6893421DD12069874216D8A7
:1029980023680F4ADB6893420ED1E06863682A46D1
:1029A8004146184418F0C8F8636800222B44C4E96B
:1029B80001323046BDE8F08120469847EEE702260E
:1029C8003046BDE8F08120469847DFE75104000013
:1029D80055040000F8B504460E4615461BB991B2D9
:1029E800FFF7C2FDD8B9D4E900239268EF18104B5D
:1029F8009A4217D12069874212D823680D4ADB68AA
:102A0800934212D1E06863682A463146184418F0A8
:102A180093F8636800222B441046C4E90132F8BDDC
:102A28000220F8BD20469047E5E720469847EAE7A8
:102A38005104000055040000F8B504460E4615463A
:102A4800E3B1D4E900239268EF18134B9A421DD1E1
:102A58002069874218D82368104ADB68934218D146
:102A6800E06863682A463146184418F065F86368D8
:102A780000222B441046C4E90132F8BD91B2FFF799
:102A880073FD0028DDD0F8E70220F8BD2046904706
:102A9800DFE720469847E4E75104000055040000AA
:102AA8000B4601461A681846136818472DE9F8437B
:102AB800D0E900234F680446023392680E46DD19B8
:102AC800294B9A4234D1006985422DD8B9B22046A3
:102AD800FFF74AFD054620BB2368DFF89480DB68D2
:102AE800434527D1E068002837D033681B69434540
:102AF8002AD1F06858B32368DB68434521D1E068E0
:102B0800336862681B6900EB0209434515D1F16817
:102B18003A46484618F010F8636800223B44C4E976
:102B280001322846BDE8F88302252846BDE8F88327
:102B38009047C9E720469847D5E730469847014669
:102B4800E6E720469847DBE730469847D2E74FF458
:102B58008B71064800F02AFDCDE740F215110348B5
:102B680000F024FDC1E700BF51040000F40A002072
:102B780055040000D0E90123934226D0026870B5BD
:102B8800D2680446124D0E46AA4208D1C06880B1E8
:102B9800C35C00203370A3680133A36070BD904705
:102BA80038B12368DB68AB420CD020469847A3684D
:102BB800EEE74FF49A71074800F0F8FC2368DB68E9
:102BC800AB42F2D1D4E90230E2E70320704700BFFC
:102BD80055040000F40A0020F8B5D0E90123934217
:102BE80034D0D21A012A33D0026804461A4F0E464E
:102BF800D268BA420BD1C068E0B1C2185578C25C3D
:102C08000233002045EA02253580A360F8BD9047CD
:102C180080B12368DB68BB4215D0204698472268FC
:102C2800A368D2681844BA42457813D02046904722
:102C3800A368E4E740F25111084800F0B7FC2368A4
:102C4800DB68BB42E9D1D4E90230D6E70320F8BDFE
:102C58000520F8BDE068D2E755040000F40A00201A
:102C6800D0E90123934206D0D21A032A01D9FFF7EB
:102C7800D1BB052070470320704700BFF8B5D0E9E5
:102C880001329A424CD09B1A032B47D90368044659
:102C98002A4F0E46DB68BB4212D1C06890B1831838
:102CA800DD78997845EA01255B7845EA0345835C38
:102CB800002045EA03653560A3680433A360F8BDC6
:102CC800984720B94FF4C2711D4800F06FFC236883
:102CD800DB68BB4226D0204698472368A268DB6899
:102CE8001044BB42C57820D020469847A2681044BB
:102CF800837845EA03252368DB68BB421AD020465F
:102D08009847A2681044437845EA03452368DB687E
:102D1800BB420DD020469847A268C8E70520F8BDF9
:102D28000320F8BDD4E90220B9E7E0688318B8E7C2
:102D3800E068BCE7E0688318B6E700BF5504000008
:102D4800F40A0020D0E901239A420FD0D21A032AAC
:102D58000AD910B582B00C4601A9FFF75BFB08B988
:102D6800019B236002B010BD052070470320704707
:102D78002DE9F0411E460368DFF8DC8082B0DB688D
:102D880004460F461546434542D1C068002842D044
:102D980026BB0DF106012046FFF71EFF10B102B059
:102DA800BDE8F081D4E90112BDF80660914238D33C
:102DB800891A8E420ED82B689E420BD82368DB688E
:102DC800434542D1E06881183846324617F0B4FED0
:102DD8002E6016E0052002B0BDE8F081D4E90112AA
:102DE8002E68914225D3891A8E42F3D82368DB686E
:102DF800434526D1E068811838462A6817F09CFEBA
:102E08002E68A36800203344A36002B0BDE8F081B7
:102E180098470028BCD140F20B210E4800F0C6FBB1
:102E2800B6E740F2A5230B4800F0DEFBD4E9011217
:102E3800BEE740F2A523074800F0D6FBD4E901120B
:102E4800D1E720469847A268D5E720469847A26868
:102E5800B9E700BFF40A00205504000010B5144675
:102E680082B01268019201AAFFF782FF019B2360DA
:102E780002B010BD0B4601461A6818465368184739
:102E88000B682DE9F047DB6882B03F4F0C460546DA
:102E9800BB424AD1C86800284BD00DF1060128462C
:102EA800FFF79AFE0646002836D12368DFF8E0903F
:102EB8009B68BDF806804B4549D1206980452FD8CD
:102EC800D5E9011291423AD3891A884528D82B6846
:102ED800DB68BB4246D1E86800284ED02368DB682F
:102EE800BB4246D1D4F80CA02B68DB68BB423CD16E
:102EF800E968AB6850464246194417F01DFE23683E
:102F08009B684B452BD12069804523D80023C4E911
:102F18000183AB684344AB60304602B0BDE8F0873C
:102F28000526304602B0BDE8F087084698470028D5
:102F3800B3D140F23121154800F038FBADE740F23B
:102F4800A523124800F050FBD5E90112BCE7204642
:102F58009847B3E70226304602B0BDE8F08720461E
:102F68009847D1E728469847B6E728469847014644
:102F7800BFE7204698478246B6E740F24221034819
:102F880000F014FBAAE700BF55040000F40A002073
:102F9800510400000023C0E9013370470023836017
:102FA800704700BF40687047F8B5036815461A4A6D
:102FB80004469B680E46934215D10069A84210D377
:102FC80016B32368154FDB68BB420ED1E06878B1B1
:102FD8002A46314617F0B0FD002365601846A36005
:102FE800F8BD0220F8BD9847E8E72046984720B981
:102FF80040F292210A4800F0D9FA2368DB68BB4204
:1030080008D020469847E3E740F29121044800F0B1
:10301800CDFAD6E7E068DBE751040000550400006C
:10302800F40A002038B503680446084A0D469B6830
:10303800934209D10069A84204D300236560184669
:10304800A36038BD022038BD9847F4E7510400005A
:10305800D0E90112914201D3881A704710B504468D
:1030680040F2A523034800F0BFFAD4E90112881AF8
:1030780010BD00BFF40A0020F8B50B680D46114FCB
:1030880004469B681646BB4215D10869B04210D366
:1030980023680D4ADB68934210D1E068A168324684
:1030A80001442846FFF780FF10B9A3683344A360A2
:1030B800F8BD0220F8BD08469847E7E7204698473C
:1030C800ECE700BF51040000550400000368074AFC
:1030D800DB68934210B5044603D1C068636818449E
:1030E80010BD98476368184410BD00BF5504000020
:1030F80000220349C0E901220160C0E903227047A8
:103108001432002070B504460D46164629B1002336
:10311800C4E90356C4E9013370BD40F2FF210448F5
:1031280000F044FA0023C4E90356C4E9013370BD32
:10313800F40A00200368F0B59B6983B004460E4684
:1031480098470546C8B12368471E20465B69019722
:1031580098470446002301AA30462146FFF708FE97
:1031680018B10023E35503B0F0BD0199B9421ED848
:1031780000231846635403B0F0BD014682220F486D
:103188004FF0FF3700F020FA2368204601975B696B
:10319800984704462B4601AA30462146FFF7E8FD2A
:1031A8000028DED10199002318466354E3E7A723DA
:1031B8003A46024800F018FA0199F4E7A4060020FC
:1031C80010B50446FFF784F9014B2046236010BD73
:1031D800C42B0020034B10B504460360FFF77EF9AB
:1031E800204610BDC42B002070B582B004460E46A0
:1031F80001920268526990478446226820466446D4
:1032080092699047019B05463CB1324629462046C3
:1032180002B0BDE87040FEF7D7BF4221024800F077
:10322800C5F9019BF1E700BFA40600200EB400B564
:1032380082B003AA52F8041B0192FFF7D5FF02B02F
:103248005DF804EB03B07047884230B5044683B09C
:1032580014D003680D465B6998472A6803462846D8
:103268001D46536998472368014620469B6901918A
:10327800984701990246284600F082F8204603B094
:1032880030BD00BF0B4601461846FFF7DDBF00BF43
:1032980030B5036883B0044601915B699847236899
:1032A800054620469B69984701990246284600F042
:1032B80067F8204603B030BD38B5036804465B693B
:1032C80098472368054620469B6998470146284643
:1032D80000F096F82368054620469B69984790B108
:1032E800411E8D4201D8284638BD236820469B6977
:1032F8009847044670B17B23621E2946084800F0AF
:1033080073F9284638BD01468222054800F05CF969
:10331800284638BD01468222014800F055F9EAE7FF
:10332800A4060020036830B55B6983B004460D46E7
:103338009847014620460191FFF7BEFF01990246D2
:10334800284603B0BDE83040FFF70EBB70B5144601
:1033580005460E46FFF7B0FFA0420BD92B6828465A
:103368005B6998472246014600233046BDE8704015
:10337800FFF762BB2846FFF79FFF0446EEE700BF52
:103388008842F8B5064622D0154602B30F4629B33F
:10339800F8B107F1FF3C00231CF8014F14B10133C9
:1033A8009D42F9D8013374193B449E4208D32A46FA
:1033B8003946304620F0A6FF002304F8013CF8BD4A
:1033C800A742F4D211210D4800F0F0F8EFE730469B
:1033D800F8BD0D21094800F0E9F8DAE70C210748A3
:1033E80000F0E4F826B11A21044800F0DFF8D0E72D
:1033F8000D21024800F0DAF8F5E700BFBC0600200E
:1034080038B504460D4668B155B1621E002302E086
:1034180001339D4204D012F8014F002CF8D11D460B
:10342800284638BD1A21024800F0C0F8ECE700BF72
:10343800BC06002010B5064C2368D96821F018F89E
:1034480023680A20D968BDE8104020F09BBF00BF60
:10345800E45F00202DE9F04384460D461C460D9993
:10346800DDE90736DDE9097EDDE90B80062A4BD860
:10347800DFE802F011182029333E0400099363465F
:1034880008940795214ACDE90CE8CDE90A67BDE81B
:10349800F043FEF771BE079563461D4ABDE8F04349
:1034A800FEF76ABE0894634607951A4ABDE8F043DA
:1034B800FEF762BE0993634608940795164ABDE86D
:1034C800F043FEF759BECDE90936089463460795DF
:1034D800124ABDE8F043FEF74FBE099363460894CD
:1034E80007950F4ACDE90A67BDE8F043FEF744BEE9
:1034F800CDE90936CDE90B7E089463460795094A5C
:10350800BDE8F043FEF738BEBDE8F083C40B0020E9
:10351800100B0020240B00203C0B0020580B00202F
:10352800780B00209C0B0020F0B51C4DC9B02C680E
:10353800CCB11F4613460A460146529826680590A4
:1035480051980490509803904F9802904E98CDE966
:1035580000702046B468A047286803681B6998472C
:10356800002049B0F0BD529C4FF480750494519CE2
:1035780006950394509C02944F9C01944E9C009491
:1035880008AC0594FFF766FF2046FFF753FF044B8E
:10359800044A7B21044823F0D9FA00BFC0C900209F
:1035A800380600202809002064060020002300B502
:1035B80087B01A46CDE90333CDE901330093FFF70D
:1035C800B3FF07B05DF804FB10B5002486B00B46C6
:1035D800114601220094CDE90344CDE90144FFF7E7
:1035E800A3FF06B010BD00BF30B515461A4687B018
:1035F80000240B4611460222049401940095CDE95B
:103608000244FFF791FF07B030BD00BF70B586B028
:10361800002415461E4603220B460A990494CDE958
:103628000244CDE90056FFF77FFF06B070BD00BF2A
:103638000430704781207047034B10B5044603607F
:10364800FFF7C8FD204610BDDC320020054B10B541
:1036580004460360FFF7BEFD8821204617F008FBEB
:10366800204610BDDC3200200FB470B5A4B0114D57
:1036780028AC02A854F8046BFFF7A2FD0E4902A873
:103688000295FFF705FE2246314602A80194FFF78E
:10369800ABFD0A4B186818B1036802A99B689847E4
:1036A80002A80295FFF796FD24B0BDE8704004B06B
:1036B800704700BFDC3200202C1D0020A8C9002064
:1036C800014B1860704700BFA8C9002008B513F067
:1036D800E7FA10F05DFE11F0E5FA11F049FDBDE8DA
:1036E800084013F061B800BF704700BF30B4012331
:1036F8000024021D05E0642B0ED0156842F8045C16
:10370800013352F8045B8D4208BF44F00104002CD9
:10371800F1D1642BF4D102E00023C0F8903130BC21
:10372800704700BF10B504464FF4CE7117F0A0FAE9
:10373800204610BD70B50F4C216811F0010101D071
:103748000D4870BD0C4D01260C4B4FF4C872281D56
:10375800C5F894112B6085F8986123F017FA28466C
:1037680013F03CF8064A07492846266018F0D8FDA9
:10377800014870BD28BA0020D8C90020843600202E
:10378800585A002049170000F8B5044608460D4667
:1037980012F012FC68B3D4F89431632B22D804EBEE
:1037A800830201335560C4F89431D5B1002654F82A
:1037B800043F2846013643B112F0E6FF0746206869
:1037C80012F0E2FF874202D9236825601D4645B101
:1037D800632EECD92DB12D210848BDE8F840FFF73C
:1037E800E5BEF8BD1D210548FFF7E0FED4F8943189
:1037F800D5E71B210148FFF7D9FECCE7280E0020AA
:1038080090F89831002B44D0D0F894312DE9F0414C
:1038180064250646DFF8D0802F4610E012F0A6FF98
:10382800022818D0D6F894315A1C013DA8FB02137F
:103838004FEA531307FB1323C6F8943127D006EB3E
:10384800830254682046002CEED012F08FFF034606
:103858002046012BE2D1204612F0AEFB002838D0DA
:10386800204612F083FED0E901309847204612F036
:103878007DFF05280ED0D6F8943164211A4A013309
:10388800A2FB0302520901FB1233C6F89431BDE8CA
:10389800F08170473368154ADB6893421ED1321DA8
:1038A8000123002105E0642B0ED0106842F8040CB7
:1038B800013352F8040B844208BF41F0010100298A
:1038C800F1D1642BF4D1E2E70023C6F89031BDE8CA
:1038D800F0814E210648FFF769FEC1E721463046D0
:1038E800BDE8F041184700BF1F85EB514D17000098
:1038F800280E0020704700BF704700BF10B512495E
:1039080084B012480CF0F4FD0A22114902AC1148A7
:103918000CF080FA01220D210F4802F00FFC8C20D8
:1039280003210E4B00220094CDE90201C8210C4866
:1039380006F090F80B490C480AF092FC0B490C4829
:1039480009F0A8FE04B010BD04D300202CC7002045
:10395800DCD2002094BB00204CBA0020C0D200204A
:1039680048760020B4D20020A085002088D200200C
:10397800E8B2002038B504460D4D00F069F800F0B3
:10398800CDF800F03FF900F08DFBFFF7B7FF2046B8
:1039980000F0A4FB2846012102F022FD0548064953
:1039A80001F07CF82846BDE8384002F079BD00BF38
:1039B800386C0020E0680020285A002010B5044622
:1039C800082117F055F9204610BD00BF10B5044670
:1039D800082117F04DF9204610BD00BF38B5144D29
:1039E800144C284616F0D8FA1349144A284618F0F9
:1039F80097FC20460BF02CFC2046114C0F4A11492D
:103A080018F08EFC20460BF02DFC0C4A0E4920467F
:103A180018F086FC64240D4B0022C8204FF47A71FC
:103A2800C3E90042C3E90202C3E9041238BD00BF7A
:103A3800C0D20020B4D20020A97F0100585A00202B
:103A480088D20020551900005919000004D300201D
:103A580008B50021214806F0F7F801220321204883
:103A680007F00AFA02211F4801F0D2F803211E4884
:103A780009F0ECFF042203211C4804F097F8052103
:103A88001B4803F0B7FD06211A480AF08FFC0721EE
:103A9800194802F051FB0821184801F0B5FC09212A
:103AA800174802F067FD0A2116480CF073FA0B213B
:103AB80015480CF077FD0C2114480DF085F90D21FF
:103AC80013480CF017F90E21124803F0BBF80F2227
:103AD80003211148BDE808400EF020BE48760020BA
:103AE80070890020E0680020E8B20020A06D002066
:103AF80058C60020A08500204CBA00201080002065
:103B0800386C002094BB00202CC70020587A002075
:103B1800B4C1002088C20020009C002008B54FF4E2
:103B28008071284810F0B4F94FF40071264810F05D
:103B3800AFF94FF44071254810F0AAF94FF48051BD
:103B4800234810F0A5F94FF40051224810F0A0F9CD
:103B58004FF48041204810F09BF94FF482411F48F0
:103B680010F096F94FF486411D4810F091F94FF482
:103B780088411C4810F08CF94FF48A411A4810F01B
:103B880087F94FF48C41194810F082F94FF48E41AF
:103B9800174810F07DF94FF49041164810F078F965
:103BA8004FF49241144810F073F94FF4A0411348B0
:103BB80010F06EF94FF480311148BDE8084010F05C
:103BC80067B900BF70890020A06D0020009C00200C
:103BD80094BB002048760020E0680020A0850020E3
:103BE80058C6002088C200202CC70020B4C100207D
:103BF800E8B20020587A0020386C00204CBA002027
:103C0800108000202DE9F84FF74C0021F74D204691
:103C1800DFF8FC8307F044FB00210246204607F04A
:103C280013FC00212846DFF8EC9304F043F9012146
:103C38000246204607F008FC00214046EC4E01F001
:103C480049FD02210246204607F0FEFB00214846B6
:103C5800E84F0DF0C9F903210246204607F0F4FBAE
:103C680000213046DFF8B0A303F006F9042102462C
:103C7800204607F0E9FB00212046DFF8A0B307F053
:103C880021FB00210246204607F05AFB012120466D
:103C980007F018FB00210246284604F02FF90221FC
:103CA800204607F00FFB00210246404601F034FD94
:103CB8000321204607F006FB0021024648460DF086
:103CC800B3F90421204607F0FDFA002102463046E8
:103CD80003F0F2F80021204607F00EFB002102460F
:103CE800204607F043FB0021204607F005FB002192
:103CF8000246284604F018F90021204607F0FCFA8D
:103D080000210246404601F01DFD0021204607F033
:103D1800F3FA0021024648460DF09CF9002120469E
:103D280007F0EAFA00210246304603F0DBF80021EA
:103D3800384606F097F8B04B02460021184601F0C5
:103D480073F8002150460AF02FFC0021024628464D
:103D580004F058F90021384606F074F800210246AC
:103D680050460AF031FCA44B0021184601F036F801
:103D78000021024650460AF03DFC50460021DFF87B
:103D8800A0A20AF011FC0021024658460EF0E6FDFA
:103D98000021284604F0A0F800210246384606F023
:103DA80071F80021284604F097F8002102462046C1
:103DB80007F0F2FA0021284604F08EF800210246A6
:103DC800284604F0C7F80021284604F085F80021A9
:103DD8000246404601F0CCFC0021284604F07CF85D
:103DE8000021024648460DF04BF90021284604F010
:103DF80073F800210246304603F08AF800217F4814
:103E080003F02EFC00210246284604F0E5F80021C4
:103E18007B4802F003FA00210246404601F000FD0B
:103E28000021404601F066FC0321024650460CF092
:103E380085F9002173480CF013FC002102467248F2
:103E480002F0E2FB6C4B0021184600F0B7FF00219E
:103E5800024650460CF072F9002158460EF05AFD01
:103E68000121024650460CF069F9002148460DF040
:103E7800CBF80221024650460CF060F9002150466A
:103E88000CF022F9002102465E480CF0F9FB0021F3
:103E980058460EF051FD00210246384606F034F827
:103EA800002158460EF048FD00210246204607F042
:103EB800B5FA002158460EF03FFD00210246404663
:103EC80001F098FC002158460EF036FD002102460C
:103ED80050460CF01DF958460021DFF848B10EF0A5
:103EE8002BFD0021024648460DF00CF900215846EA
:103EF8000BF036FF00210246384605F0D9FF0021B5
:103F080058460BF02DFF00210246204607F05AFACA
:103F1800002158460BF024FF00210246284604F0F1
:103F28002FF8002158460BF01BFF0021024640469F
:103F380001F034FC002158460BF012FF0021024624
:103F480048460DF0B3F8584600210BF009FF002150
:103F58000246304602F0F2FF0021304602F09CFF94
:103F680000210246384605F0B9FF0021304602F02C
:103F780093FF00210246204607F03AFA0021304616
:103F880002F08AFF00210246284604F00FF80021BB
:103F980030461E4D02F080FF00210246404601F0E7
:103FA80013FC0021304602F077FF002102465046FC
:103FB8000CF09AF80021304602F06EFF002102460C
:103FC80048460DF089F80021304602F065FF0021CF
:103FD8000246304602F0C8FF0021284609F06EFE6E
:103FE8000021024620461FE070890020A06D0020B5
:103FF80088C2002048760020E068002058C60020CB
:104008004CBA00202CC70020386C0020E8B20020F1
:1040180010800020587A0020A0850020009C0020F5
:1040280094BB0020B4C1002007F026FA00213846CE
:1040380005F008FF1A4B02460021184600F0DEFE84
:104048000021284609F04AFE154B02460021184671
:1040580000F000FF0021384605F0F4FE002102467A
:10406800284609F04BFE0021384605F0FBFE0021EA
:104078000246284609F058FE0021204607F04EF96E
:1040880000210246284609F065FE0021384605F061
:10409800E9FE002102462846BDE8F84F09F070BE47
:1040A800E068002008B5084807F0FCF9074803F065
:1040B800BFFF074801F0CAFB06480DF039F806486B
:1040C800BDE8084002F066BF70890020A06D00209E
:1040D80010800020587A002088C2002010B50024E3
:1040E80082B04FF0FF334FF48032009401246521F1
:1040F8000B480FF075F900944FF0FF334FF48032FE
:104108006221084802240FF06BF94FF0FF334FF497
:1041180080326121044800940FF062F902B010BDAA
:1041280070890020A06D0020009C002038B5514DFA
:10413800514C5249284605F0FDFB2846504D224671
:10414800504918F0EDF85049284606F04DFC28462D
:104158004E4D22464E4918F0E3F84E49284600F0E5
:104168008DFC28464C4D22464C4918F0D9F84C494C
:10417800284609F073FA28464A4D22464A4918F05B
:10418800CFF84A49284603F0FFFB2846484D224607
:10419800484918F0C5F84849284603F005FA284662
:1041A800464D2246464918F0BBF8464928460AF0CB
:1041B80043F82846444D2246444918F0B1F844498A
:1041C800284601F0ABFF2846424D2246424918F0E6
:1041D800A7F84249284601F051F82846404D2246A2
:1041E800404918F09DF84049284602F0E3F828466F
:1041F8003E4D22463E4918F093F83E4928460BF0BA
:10420800F7FD28463C4D22463C4918F089F83C49C0
:1042180028460CF057F928463A4D22463A4918F0F4
:104228007FF83A4928460CF007FC2846384D2246C4
:10423800384918F075F8384928460BF029FD284602
:10424800364D2246364918F06BF83649284602F0B2
:1042580013FC2846344D2246344918F061F8344995
:1042680028460EF057F8224628463249BDE838401D
:1042780018F056B848760020585A0020CC03002081
:10428800708900205D7A0000DC030020E0680020CF
:10429800C1870000E4030020E8B20020F5290000EF
:1042A800F0030020A06D002029B60000FC030020C8
:1042B80058C60020795A000008040020A085002074
:1042C800C9550000180400204CBA002089C100001C
:1042D8002004002010800020E14000002C04002071
:1042E800386C0020493100003004002094BB0020C5
:1042F800494400003C0400202CC700201DDE0000BB
:1043080048040020587A002081E400005804002066
:10431800B4C100201DEA00006804002088C2002003
:1043280059DC000074040020009C00201D4A000095
:1043380080040020210401000F2070470F207047DF
:104348000F2070470F20704704307047704700BF38
:1043580010B50446082116F08BFC204610BD00BF9E
:10436800083070472DE9F8439946C3690546144655
:104378001BB131213348FFF719F92B6A1BB13221E0
:104388003048FFF713F9AB691BB133212D48FFF70C
:104398000DF96FF060432C499C4234BFA7004FF0E1
:1043A800FF37384615F0F6FF064600283AD038465B
:1043B800254915F0EFFF074600283DD0224909FBA3
:1043C80004F015F0E7FF804670B3214605F10800B8
:1043D80010F012F9D0B15CB1321F002142F8041F6D
:1043E80001318C42FAD1A2000021384622F0CEFBDE
:1043F8000023C5F83090EE611846C5F818806B6345
:10440800C5E90874C5E90A33BDE8F883304616F0F3
:104418002DFC384616F02AFC404616F027FC0A20E8
:10442800BDE8F8830A20EFE7304616F01FFC38464F
:1044380016F01CFC0A20E7E7304616F017FC0A20A5
:10444800E2E700BF080E00209C29002010B50446B2
:1044580082B004F1380101A811F086FA646B01A852
:1044680011F0DAFA204602B010BD00BF083010F093
:1044780077B900BFF8B51E46836A04460D46B342B5
:1044880017460ED3E369AB4212D923693946A06AAD
:10449800324600FB053016F04FFBA36943F8256050
:1044A800F8BD1A210548FFF781F8E369AB42ECD85B
:1044B8001B210248FFF77AF8E7E700BF080E002043
:1044C80038B50446104B8069236008B116F0CEFB5E
:1044D800E06908B116F0CAFB206A08B116F0C6FBFD
:1044E80004F1D80004F1080511F066FB04F190000E
:1044F80011F062FB04F1380010F028FF284610F094
:1045080073F8204638BD00BF3036002010B5044689
:10451800FFF7D6FF4FF49071204616F0A9FB20460E
:1045280010BD00BF2DE9F04F9B46036B83B093424B
:104538009DF8305059D300F1380700F108060446B9
:104548008A4601A83946914611F00EFA304610F015
:10455800F9F8012D01D100285BD104F1900801E0A0
:1045680011F006FB304610F0EDF805463946404696
:10457800002DF5D1E26959463046D4E90973B3FBF9
:10458800F7FC5D1C07FB1C3352F82380B5FBF7F3DF
:1045980007FB13554246A56210F056F800B3524681
:1045A8004B4641463046FFF765FF23681B4D9B6924
:1045B800226AAB4242F82890676B23D1304610F04C
:1045C800CFF8874215D9636B636301A811F024FA09
:1045D80004F1D80011F036FB002003B0BDE8F08FDD
:1045E80076210F48FEF7E2FFD9E7042003B0BDE8C3
:1045F800F08F23689B69AB4207D1304610F0B0F8C2
:104608000346E1E720469847DBE7204698470346FC
:10461800DAE701A811F000FA0820DEE7CD2400004F
:10462800080E00202DE9F04700F1380682B000F1AD
:1046380008051F4604468846684631469146DDF817
:1046480028A011F091F9284610F084F8012F01D123
:1046580000285DD104F1D80701E011F089FA284655
:1046680010F078F8034631463846002BF5D1284635
:1046780001AA0B9910F042F9002844D0236A019E40
:1046880053F826504D45CAF8005034D8236BAB4236
:104698002CD3636AB34224D9A3692A46216B4046C6
:1046A80001FB063116F048FAE36A626A6846E16976
:1046B800019DB3FBF2F602FB163341F82350E36A7F
:1046C800626A0133B3FBF2F102FB1133E36211F0CA
:1046D800A3F904F1900011F0B5FA002002B0BDE88A
:1046E800F08724210D48FEF761FFD5E723210B4809
:1046F800FEF75CFFCDE792210848FEF757FF019EC1
:10470800DAF80050C2E790210448FEF74FFFB5E7FA
:10471800684611F081F90220E0E700BF080E00208A
:10472800012300200B60704701230020C1E90033FA
:10473800704700BF04307047704700BF10B504468B
:10474800082116F095FA204610BD00BF012300206D
:10475800C1E90033704700BF04307047704700BF9D
:1047680010B50446082116F083FA204610BD00BF94
:104778000020704700207047704700BF10B50446FE
:10478800042116F075FA204610BD00BF704700BF1F
:1047980000207047704700BF10B50446042116F08A
:1047A80067FA204610BD00BF704700BF0020704761
:1047B80000230371704700BF01230371704700BFD6
:1047C8000430704708B54FF0010CD1E9023280F887
:1047D80004C0C0E9023210469847002008BD00BF57
:1047E80001207047704700BF3221034808B5FEF723
:1047F800DDFE042008BD00BF580E002010B5044699
:10480800102116F035FA204610BD00BF034B10B535
:1048180004460360FEF78EFF204610BDBC3600201C
:10482800406810B103685B681847704704307047E8
:10483800704700BF10B50446082116F019FA204643
:1048480010BD00BF0160704704307047F8B5144EC2
:104858000546144F346816F0C9F8A7FB002312491F
:10486800DFF848C04FF47A7E9B0C0CFB1303A1FBC6
:104878000402A1FB030192090EFB1242B2EB911F45
:1048880005D03268A7FB0237BB0C0CFB1323064A82
:104898000020AB60A2FB0424A4096C60F8BD00BF33
:1048A8006CD3002083DE1B43D34D621040420F00BF
:1048B80038B50C460546011D2046FEF7D1F900B172
:1048C80038BD05F108012046BDE83840FEF7C8B9F3
:1048D800034B10B504460360FDF700FE204610BDEB
:1048E80090340020054B10B504460360FDF7F6FD33
:1048F8000C21204616F0BCF9204610BD903400204B
:1049080038B50C46054641682046FDF777FE00B1EC
:1049180038BDA9682046BDE83840FDF76FBE00BF26
:10492800F8B5144600220E4605461146204615F0F5
:1049380057F8304612F00EFA6E6801680346B14225
:104948000DD2AF684268974211D2114B013E204602
:104958003B44711A9A1A15F043F80020F8BD0DD09F
:104968005F683046AA680E4601469742EDD3204656
:10497800BA1A711A15F034F80020F8BDA8688142F7
:1049880002D95F680246DEE75A680746DBE700BFE0
:1049980040420F00034B10B50446036000F072FB61
:1049A800204610BDE03F0020064B10B504460360CA
:1049B80000F068FB4FF45671204616F059F920466E
:1049C80010BD00BFE03F002010B5044682B0084685
:1049D8001946CDE9000300F07BF8019A0021009800
:1049E80000F00EFB2046FDF773FD034A0023204626
:1049F8002260237102B010BD9C37002017F0D8B98F
:104A080030B50446D0F85403184A8DB003681B69C2
:104A1800934229D117F0CCF920B340230022214634
:104A280003A800F0D3FA03A92046114D00F072F84C
:104A380001A8FDF74DFD002101AB03AA20468DF822
:104A48000810019500F006FB01A80195FDF746FD49
:104A5800084A094B04A8CDE90323FDF749FD03A83B
:104A6800FDF73CFD0DB030BD9847D5E75D2A000045
:104A780080370020C03200201432002010B50446D0
:104A880000F0FEF90023034A20462260C4E9D4332B
:104A980010BD00BFE03F002017F0CEB938B504467E
:104AA8000D4669B100212046C4F8545300F00EFAAF
:104AB80000B938BD20460021BDE8384000F0B6BA3C
:104AC8000F210248FEF772FDECE700BF001E002030
:104AD80070B5D0F8545382B00C468DB12B6820467F
:104AE8005E6812F0B9FC01462046019112F0B6FC4E
:104AF800019902463346284602B0BDE8704018477F
:104B080006461B210248FEF751FDD6F85453E5E747
:104B1800001E00202DE9F843D0F8545308460F46EC
:104B2800002412F099FCDFF85C80DFF85C90461EE8
:104B380014E017F03DF903463846002B18DD12F053
:104B48008DFCA04214D92B685B694B4516D117F030
:104B580073F9431C0CD0013406F8010F2B681B694C
:104B68004345E6D02846984703463846002BE6DCFE
:104B780021463846BDE8F84312F07CBC28469847E1
:104B8800E7E700BF5D2A0000F92A000004307047FB
:104B980051207047034B10B504460360FEF71AFB1B
:104BA800204610BD802B0020054B10B5044603603D
:104BB800FEF710FB5821204616F05AF8204610BD83
:104BC800802B002000F53E7010F026BE00F53E70E8
:104BD80010F076BE70B50D460446164678B1002D25
:104BE80005DD40F2991229460848FEF7EDFC2368D6
:104BF8003246294620461B69BDE87040184740F2F6
:104C08001D210248FEF7D2FCE9E700BFD01F0020B3
:104C18002DE9F043044697B00FF032F95D4F04F1E7
:104C280064085D4D04F1080604F5A27940460EF0CB
:104C380015FA5A4A214640460EF074F900214046BA
:104C480015F018F86846FEF7BBFA3946684600952D
:104C5800FEF71EFB0023324651496846FEF7E6FA86
:104C680001A9404604F1D40815F06AF96846009590
:104C7800FEF7B0FA40460AF061F94A4A2146404632
:104C88000AF0E0F80021404614F0F4FF6846FEF709
:104C980097FA394668460095FEF7FAFA3246002335
:104CA80041496846FEF7C2FA01A9404604F507786B
:104CB80015F046F968460095FEF78CFA484612F05A
:104CC800A7FC6846FEF77CFA394668460095FEF769
:104CD800DFFA3246002335496846FEF7A7FA01A9EC
:104CE800484604F5D87915F02BF968460095FEF783
:104CF80071FA484604F5227412F0BAFD6846FEF7C8
:104D08005FFA394668460095FEF7C2FA3246002334
:104D180027496846FEF78AFA01A9484615F010F9AE
:104D280068460095FEF756FA404609F0F3FE6846D5
:104D3800FEF746FA394668460095FEF7A9FA324664
:104D480000231C496846FEF771FA01A9404615F090
:104D5800F7F868460095FEF73DFA20460AF02AF86B
:104D68006846FEF72DFA394668460095FEF790FA30
:104D78003246002310496846FEF758FA01A9204632
:104D880015F0DEF868460095FEF724FA17B0BDE87E
:104D9800F08300BF2C1D0020802B0020352C000044
:104DA80028200020F12F0000442000205C20002053
:104DB8007820002098200020B420002038B50C1E50
:104DC800054603DD9E220448FEF7FEFBC4EBC4043F
:104DD80005EB0410643038BDD01F002038B50C1E18
:104DE800054603DDA9220448FEF7EEFBC4EBC40424
:104DF80005EB0410D43038BDD01F002070B50D1E4F
:104E08000446164603DDBB220648FEF7DDFB6C238D
:104E1800314603FB0540BDE8704000F5A27012F072
:104E2800C5BB00BFD01F002070B50D1E0446164636
:104E380003DDC9220648FEF7C7FB6C23314603FB96
:104E48000540BDE8704000F5D87012F0C1BC00BF45
:104E5800D01F002070B50D1E0446164603DDE5225E
:104E68000648FEF7B1FB6C23314603FB0540BDE85D
:104E7800704000F5227009F03FBF00BFD01F00202E
:104E880010B504460EF0EEFF0F4B204640F8643B89
:104E98000EF03CF804F1D40009F0C8FF04F5A27044
:104EA80012F078FB04F5D87012F086FC04F5077050
:104EB80009F0F2FD04F5227009F012FF04F53E70C6
:104EC80010F08EFC204610BD8440002038B50D1E21
:104ED800044604DD40F279120548FEF775FB6C23A1
:104EE80003FB0540BDE8384000F5077014F07EBFAD
:104EF800D01F00202DE9F041161E82B005460C4651
:104F08001F4605DD4FF4D67231461D48FEF75CFB9F
:104F1800DFF878802846FDF7DBFA0022C5F8008024
:104F280023689B692A71174A934220D104F53E7081
:104F380010F072FC216832463B4668464E692146AD
:104F4800B047694628460AF053F96846CDF800800C
:104F5800FDF7C4FA23680C4ADB6993420AD104F5C9
:104F68003E7010F0ADFC284602B0BDE8F081204646
:104F78009847DFE720469847284602B0BDE8F08109
:104F8800D01F0020252C00002D2C00009C3700206D
:104F980030B5044683B00D4631B120462946FFF7A7
:104FA800A9FF204603B030BD4FF40B710648CDE988
:104FB8000023FEF7FBFA20462946DDE90023FFF728
:104FC80099FF204603B030BDD01F0020F8B5151E4C
:104FD80006460C461F4605DD4FF4E672294607488B
:104FE800FEF7F2FA6C2330463A4603FB054101F519
:104FF800A27112F0EBFA3046F8BD00BFD01F0020B6
:1050080070B50D1E0446164604DD40F2DB12064854
:10501800FEF7DAFA6C23314603FB0540BDE8704021
:1050280000F5D87012F0E4BBD01F002038B50D1E73
:10503800044604DD40F2E7120548FEF7C5FA6C2382
:1050480003FB0540BDE8384000F5077009F030BDA6
:10505800D01F0020F8B50D1E044616461F4604DD75
:1050680040F2F5120648FEF7AFFA6C233A4631468D
:1050780003FB0540BDE8F84000F5227009F04CBE7E
:10508800D01F002010B5174B044600F53E70236072
:1050980010F05CF9D4F8883204F522705B68984700
:1050A800D4F81C3204F507705B689847D4F8B0311F
:1050B80004F5D8705B689847D4F8443104F5A270B9
:1050C8005B689847D4F8D43004F1D4005B689847FB
:1050D800636E04F164005B68984720460EF06AFE30
:1050E800204610BD8440002010B5074A0446074BEF
:1050F80000F5AF602260C4F87835FDF7EFF9204677
:1051080000F0C6FD204610BD002B00206C320020A8
:1051180030B583B004460D4D6846FDF7D9F9002334
:105128006946204600958DF8043000F0ADFC9DF8E6
:105138000410012903D025220548FEF745FA6846E0
:105148000095FDF7CBF903B030BD00BFA82B0020B8
:10515800200600202DE9F04188B00446364D684607
:10516800FDF7B6F9002294F88C3500958DF80420E7
:1051780033B968460095FDF7B1F908B0BDE8F0818C
:1051880002A82E4EFDF7A4F994F87C35D4F88815BA
:1051980002968DF80C3011B94BB1012B47D0002382
:1051A80002A80296C4F88835FDF798F9E1E70121CD
:1051B80002A815F065F894F87C259DF80C309A4201
:1051C800EDD0D4F880350021D4F884252046013369
:1051D80042F10002C4F88035C4F8842500F0ACFB25
:1051E800F8B19DF80C7004A8DFF85880FDF770F945
:1051F800A7F1010704AB00222146B7FA87F706A8F2
:10520800CDF810807F098DF8147000F0A9FB0C4BC5
:1052180006A80693FDF762F904A8CDF81080FDF7FB
:105228005DF902A904F5AF6015F026F8B7E702A802
:1052380015F026F8BFE700BFA82B00206C3200202D
:1052480048370020A432002010B50A4A04460A4B09
:1052580000F5AF602260C4F87835FDF73FF92046C5
:1052680000F016FD20464FF4B26115F001FD20460E
:1052780010BD00BF002B00206C32002010B5044682
:1052880000F00EFB0C4B04F5AF602360FDF720F92E
:105298000A49002304F5B062C4F8781500200021FB
:1052A80084F87C35C2E9000101222046C4F888351B
:1052B80084F88C2510BD00BF002B00206C32002024
:1052C8002DE9F047054684B018461E460F4690461D
:1052D80014F0D8FF48BB6C46DFF8ACA04FF00209C9
:1052E8002046FDF7F5F83379284621468DF8043035
:1052F800CDF800A000F026FD2046CDF800A0FDF76F
:10530800EDF8204E2046FDF7E3F828464246394698
:1053180023468DF80490009600F03CFB204600964A
:10532800FDF7DCF804B0BDE8F08700236C46DFF831
:1053380058A0C5F88835994633792046A3F101036A
:10534800B3FA83F35B0985F88C35FDF7C1F8337937
:10535800214628468DF80430CDF800A000F0A0FDC5
:105368002046CDF800A0FDF7B9F8204614F070FAF1
:1053780028462246314600F041FE204614F010FA35
:10538800BFE700BFEC2B00206C32002004307047D0
:1053980081207047704700BF704700BF034B10B5AE
:1053A80004460360FDF716FF204610BD602F00205D
:1053B800054B10B504460360FDF70CFF8821204615
:1053C80015F056FC204610BD602F002070B50D4624
:1053D8000446164678B1002D05DD40F231322946E3
:1053E8000848FEF7F1F823683246294620461B692B
:1053F800BDE87040184740F2D6410248FEF7D6F89B
:10540800E9E700BF940400202DE9F043054697B072
:105418000EF036FDA04F05F16408A04C05F1080612
:1054280005F5A279404612F041FD9D4A29464046BD
:1054380012F082FC0021404614F01CFC6846FDF77F
:10544800BFFE394668460094FDF722FF0023324626
:1054580094496846FDF7EAFE01A9404605F1D408DB
:1054680014F06EFD68460094FDF7B4FE40460DF05A
:10547800F5FD8D4A294640460DF054FD0021404671
:1054880014F0F8FB6846FDF79BFE39466846009421
:10549800FDF7FEFE3246002384496846FDF7C6FE46
:1054A80001A9404605F5077814F04AFD68460094BE
:1054B800FDF790FE484612F059FE6846FDF780FE5B
:1054C800394668460094FDF7E3FE324600237849E2
:1054D8006846FDF7ABFE01A9484605F5D87914F0F2
:1054E8002FFD68460094FDF775FE484613F026F830
:1054F8006846FDF765FE394668460094FDF7C8FE24
:10550800324600236B496846FDF790FE01A94846DC
:1055180005F5227914F014FD68460094FDF75AFE4B
:10552800404613F07DFA6846FDF74AFE394668465C
:105538000094FDF7ADFE324600235F496846FDF74B
:1055480075FE01A9404605F53D7814F0F9FC68465A
:105558000094FDF73FFE484613F08AFC6846FDF7C5
:105568002FFE394668460094FDF792FE3246002326
:1055780052496846FDF75AFE01A9484605F558798B
:1055880014F0DEFC68460094FDF724FE404612F055
:105598003BFA6846FDF714FE394668460094FDF765
:1055A80077FE3246002346496846FDF73FFE01A9CB
:1055B800404605F5737814F0C3FC68460094FDF77F
:1055C80009FE484612F0D4FA6846FDF7F9FD394657
:1055D80068460094FDF75CFE324600233949684668
:1055E800FDF724FE01A9484614F0AAFC6846009479
:1055F800FDF7F0FD404614F01DFB6846FDF7E0FDA1
:10560800394668460094FDF743FE324600232E498A
:105618006846FDF70BFE01A9404605F5876814F0BA
:105628008FFC68460094FDF7D5FD404605F2A44579
:1056380013F028FF6846FDF7C3FD39466846009415
:10564800FDF726FE3246002320496846FDF7EEFDA9
:1056580001A9404614F074FC68460094FDF7BAFDB1
:10566800284601F0A9F96846FDF7AAFD39466846BB
:105678000094FDF70DFE3246002315496846FDF7F4
:10568800D5FD01A9284614F05BFC68460094FDF797
:10569800A1FD17B0BDE8F0832C1D0020802B002051
:1056A800193C0000D80400202D340000F00400202C
:1056B80008050020280500204C050020680500206A
:1056C80088050020A8050020C8050020E80500205E
:1056D8000406002038B50C1E054603DDFF220448E9
:1056E800FDF772FFC4EBC40405EB0410643038BD49
:1056F8009404002038B50C1E054604DD4FF487726B
:105708000448FDF761FFC4EBC40405EB0410D43072
:1057180038BD00BF9404002070B50D1E044616461F
:1057280004DD4FF490720648FDF74EFF6C233146B6
:1057380003FB0540BDE8704000F5A27012F0C6BC3E
:105748009404002070B50D1E0446164604DD4FF47F
:1057580097720648FDF738FF6C23314603FB054076
:10576800BDE8704000F5D87012F078BE94040020AF
:1057780070B50D1E0446164604DD4FF49E720648A9
:10578800FDF722FF6C23314603FB0540BDE870405E
:1057980000F5077013F066B89404002070B50D1E6C
:1057A8000446164604DD4FF4A6720648FDF70CFFC2
:1057B8006C23314603FB0540BDE8704000F52270BC
:1057C80013F068BA9404002070B50D1E04461646FE
:1057D80004DD4FF4BC720648FDF7F6FE6C23314633
:1057E80003FB0540BDE8704000F5737014F0A6B9DE
:1057F8009404002070B50D1E0446164604DD4FF4CF
:10580800C3720648FDF7E0FE6C23314603FB0540F2
:10581800BDE8704000F5876013F07EBD9404002059
:1058280070B50D1E0446164604DD4FF4CC720648CA
:10583800FDF7CAFE6C23314603FB0540BDE8704006
:1058480000F2A44001F086B89404002038B500F5B1
:10585800A2750446284614F0C9FAC0B120460EF0D5
:1058680019FB0146284612F041FC20460EF012FBB7
:1058780001462846013112F039FC20460EF00AFB99
:10588800014628460231BDE8384012F02FBC40F2EC
:1058980015210248FDF78AFEE0E700BF94040020C6
:1058A80070B504460EF0DEFA214B0026204604F5BA
:1058B800A26540F8643B12F033FA04F1D4000DF00D
:1058C80025FB04F5A27012F0F5FB04F5D87012F070
:1058D800B9FD04F5077012F0B9FF04F5227013F052
:1058E800CDF904F53D7012F083F804F5587012F004
:1058F800E7F804F5737014F015F904F5876013F0F0
:10590800FFFC04F2A44001F019F82846FCF7E0FD7A
:10591800084B04F5A46084F81465C4F810350FF03A
:105928005FFF3146284612F049F8204670BD00BF97
:10593800D82A0020A82B002038B50D1E044604DD07
:105948004FF447720548FDF73FFE6C2303FB054003
:10595800BDE8384000F2A44014F048BA940400208E
:10596800F8B5151E06460C461F4605DD40F24732BF
:1059780029460748FDF728FE6C2330463A4603FBC4
:10598800054101F2A44100F0F5FF3046F8BD00BF23
:105998009404002030B500F5D87483B00D46204635
:1059A800CDE9003214F022FADDE9003230B129469F
:1059B800204603B0BDE8304012F060BD40F25B31D4
:1059C8000648CDE90023FDF7F1FD29462046DDE92B
:1059D800002303B0BDE8304012F050BD940400200D
:1059E8002DE9F04184B0044618461D460F46164678
:1059F800FDF7D4FA6846FCF76BFDDFF888800023D2
:105A080028466946CDF800808DF80430FDF732FA53
:105A1800E0B9236802A85D69FCF75AFD9DF80430D7
:105A28002046324639468DF80C3002ABCDF8088056
:105A3800A84702A8CDF80880FCF750FD6846CDF8C5
:105A48000080FCF74BFD04B0BDE8F08104F5D87484
:105A5800204614F0CBF90028F0D002A8084DFCF736
:105A680037FD0323204632468DF80C30394602AB09
:105A7800029512F003FD02A80295FCF72FFDDDE761
:105A8800EC2B00206C32002070B500F5A4660D46A2
:105A9800044630460FF0C0FE04F5A261284611F016
:105AA80089FFD4F8184530460FF00AFF204670BD2C
:105AB800F0B583B004460D46104601A9FDF7D0F8AD
:105AC80048B12046FCF704FD154A0223204622600F
:105AD800237103B0F0BD05F5A467064638460FF0FC
:105AE8009BFE019B012105F5A260C5F8183511F050
:105AF80065FF38460FF0E4FE2B680A4A9B6993421B
:105B080009D12046FCF7E4FC054A00232046226020
:105B1800237103B0F0BD314628469847F1E700BF2E
:105B2800EC2B0020F53300002DE9F04101F5587702
:105B3800A2B004460D46384614F058F930B305F5BE
:105B4800A46801A811F0B2FE40460FF065FED5F832
:105B5800181501A8FCF752FD064640460FF0B0FEA6
:105B6800FEB928460EF096F901AA0146384611F00A
:105B7800B3FF2046FCF7ACFC0E4B2671236001A84E
:105B880011F07CFE204622B0BDE8F0812046FCF7EB
:105B98009FFC084A042320462260237122B0BDE8F6
:105BA800F0812046FCF794FC024A0223226023710C
:105BB800E5E700BFEC2B00202DE9F04385B0154642
:105BC800064698460C9F002851D030460EF062F9E0
:105BD800A842044608D82C1B012C0FD0022C20D038
:105BE800B4B105B0BDE8F0832C1B02464FF49563B1
:105BF80029462548FDF7F8FC012CEFD1E9463A463D
:105C0800314602AF484606F5D876FFF751FF10E057
:105C18003B4642462946304605B0BDE8F043FFF70B
:105C2800DFBEE946314602AF06F5D8764846FFF7AB
:105C38007BFF3846154CFCF74BFC9DF8043030468A
:105C480002948DF80C3014F0D1F8B0B142462946D0
:105C58003B46304612F012FC38460294FCF73EFCF4
:105C680048460094FCF73AFC05B0BDE8F08340F2E2
:105C7800A4410548FDF79AFCA7E740F25B310248CA
:105C8800FDF794FCE2E700BF94040020EC2B002011
:105C980010B52A4B044600F5A46023600FF056FBAC
:105CA800274B04F5A260C4F81035FCF717FCD4F8AC
:105CB800A43404F2A4405B689847D4F8383404F557
:105CC80087605B689847D4F8CC3304F573705B68D9
:105CD8009847D4F8603304F558705B689847D4F84F
:105CE800F43204F53D705B689847D4F8883204F5BF
:105CF80022705B689847D4F81C3204F507705B681B
:105D08009847D4F8B03104F5D8705B689847D4F850
:105D1800443104F5A2705B689847D4F8D43004F194
:105D2800D4005B689847636E04F164005B68984729
:105D380020460EF03FF8204610BD00BFD82A0020AC
:105D4800A82B00202DE9F0470446CCB00E4604F5F8
:105D5800737504A813F07CFD284614F047F8B0B911
:105D680004F5077520460EF095F80746284614F006
:105D78003DF8002859D104F52275284614F036F864
:105D880050B904A813F00CFD4CB0BDE8F08704A985
:105D9800284613F0E3FEE3E7DFF8FC9008A8FDF7D8
:105DA8000FFA0DF1A808374908A8CDF82090FDF79B
:105DB8006FFA08A9304614F00FFADFF8E0A0404661
:105DC800FDF7FEF92F494046CDF8A8A0FDF760FA87
:105DD80009AB04F108022C49009340462B4BFDF710
:105DE80025FA02A8FCF774FB0323294C394604AAB8
:105DF80028468DF80C3002ABCDF80080029412F0E2
:105E080059FF02A80294FCF769FB4046CDF8A8A008
:105E1800FDF7E0F908A8CDF82090FDF7DBF904A814
:105E280013F0BEFC4CB0BDE8F0870DF1A808404661
:105E380012F0A2FB31464046FCF732FED0B908A862
:105E4800DFF84C90FCF744FB0323284604AA3946A4
:105E58008DF82430CDF8008008ABCDF8209012F0F2
:105E680011FD08A8CDF82090FCF738FB404612F049
:105E78006BFB80E7014640F2BE320648FDF7A4FB03
:105E8800DDE700BF2C1D0020E0220020C8220020F2
:105E9800082C002094040020DC320020602F002011
:105EA8002DE9F0470446CCB00E4604F5737504A8F6
:105EB80013F0CEFC284613F099FFB0B904F5077526
:105EC80020460DF0E7FF471C284613F08FFF0028F7
:105ED80059D104F52275284613F088FF50B904A853
:105EE80013F05EFC4CB0BDE8F08704A9284613F017
:105EF80035FEE3E7DFF8FC9008A8FDF761F90DF13E
:105F0800A808374908A8CDF82090FDF7C1F908A9D5
:105F1800304614F061F9DFF8E0A04046FDF750F98B
:105F28002F494046CDF8A8A0FDF7B2F909AB04F116
:105F380008022C49009340462B4BFDF777F902A83D
:105F4800FCF7C6FA0523294C394604AA28468DF8D9
:105F58000C3002ABCDF80080029412F0ABFE02A820
:105F68000294FCF7BBFA4046CDF8A8A0FDF732F939
:105F780008A8CDF82090FDF72DF904A813F010FC1F
:105F88004CB0BDE8F0870DF1A808404612F0F4FACD
:105F980031464046FCF784FDD0B908A8DFF84C909C
:105FA800FCF796FA0523284604AA39468DF82430CA
:105FB800CDF8008008ABCDF8209012F063FC08A85B
:105FC800CDF82090FCF78AFA404612F0BDFA80E737
:105FD800014640F213420648FDF7F6FADDE700BF36
:105FE8002C1D0020A422002090220020082C002034
:105FF80094040020DC320020602F00202DE9F041BD
:1060080000F5876788B004460E463846154613F0F3
:10601800EDFE10B908B0BDE8F08104F5737840468C
:1060280013F0E4FEB0B9684612F040FF3146684606
:10603800FCF736FDC8B920460DF02CFF6B4601462B
:106048002A46384613F078F9684612F017FF08B068
:10605800BDE8F0810849284613F040FC0028E2D04A
:106068004046294613F07AFDDDE7014640F25642E4
:106078000248FDF7A9FADEE7B0C900209404002021
:10608800034B10B50446036000F0EAF8204610BD43
:106098009C3F0020064B10B50446036000F0E0F872
:1060A8004FF4A471204614F0E3FD204610BD00BF54
:1060B8009C3F002038B5044691F844011D4614F071
:1060C800E9FC01462846A1F10101B1FA81F149092B
:1060D80014F066F82046FCF7FBF9034A0023204633
:1060E8002260237138BD00BF483700201B7910B5E6
:1060F800044691F84401A3F10101B1FA81F149097B
:1061080014F09EFC2046FCF7E3F9034A00232046DE
:106118002260237110BD00BF4837002010B5044627
:1061280000F08CF8034A4FF0FF3320462260C4F891
:10613800443110BD9C3F002000F00EB8844608B5DD
:106148000B46111ED8B218BF0121CCF8443114F007
:10615800B3FC012008BD00BF2DE9F041044696B00C
:106168000DF08EFEDFF8B08004F16406254D04F1D1
:106178000807304600F0DCFA234A2146304600F092
:10618800BDFA0021304613F075FD6846FDF718F892
:10619800414668460095FDF77BF800233A461B49BF
:1061A8006846FDF743F801A9304604F1D40613F018
:1061B800C7FE68460095FDF70DF8304600F0FAFB7B
:1061C800134A2146304600F079FB0021304613F08F
:1061D80051FD6846FCF7F4FF414668460095FDF717
:1061E80057F83A4600230B496846FDF71FF801A9FE
:1061F800304613F0A5FE68460095FCF7EBFF16B095
:10620800BDE8F081802B0020454300000C1F0020D2
:10621800D9430000281F00202C1D002038B50C1E73
:10622800054603DD5D220448FDF7CEF9C4EBC4043E
:1062380005EB0410D43038BDB81E002010B5044654
:106248000DF010FE054B204640F8643B00F04AFA7A
:1062580004F1D40000F026FB204610BD4040002089
:1062680010B5094B044640F8D43BD4F8D4305B68E9
:106278009847636E04F164005B68984720460DF008
:1062880099FD204610BD00BF40400020F0B5151E06
:1062980085B004460E4606DD932229460F48019331
:1062A800FDF792F9019B0E4F20460193FCF710F978
:1062B80027602A4630683146019B05690020207115
:1062C80002A8A84702A9204600F0AEFA02A8029741
:1062D800FCF704F9204605B0F0BD00BFB81E002049
:1062E8004837002030B5044683B00D4631B120460A
:1062F8002946FFF7CBFF204603B030BDC52107482C
:10630800CDE90023FDF752F920462946DDE90023AF
:10631800FFF7BCFF204603B030BD00BFB81E002009
:10632800F0B5151E85B004460E4606DDAA2229469C
:106338000F480193FDF748F9019B0E4F2046019342
:10634800FCF7C6F827602A4630683146019B456944
:106358000020207102A8A84702A9204600F064FA8C
:1063680002A80297FCF7BAF8204605B0F0BD00BFB6
:10637800B81E00204837002030B5044683B00D46CB
:1063880031B120462946FFF7CBFF204603B030BD88
:10639800D4210748CDE90023FDF708F9204629460E
:1063A800DDE90023FFF7BCFF204603B030BD00BF86
:1063B800B81E002010B5044600F03AF9064A4FF01E
:1063C800FF3304F5A070C4F83C31226010F006FFDA
:1063D800024B20461C6010BD28400020D4C9002074
:1063E800C0F83C11704700BF10B5064B044600F5D5
:1063F800A070236010F06EFC204600F099F820464B
:1064080010BD00BF2840002010B5084B044600F519
:10641800A070236010F05EFC204600F089F820464A
:106428004FF4B47114F024FC204610BD284000201D
:1064380010B58AB00446684610F0D0FE684610F0E1
:1064480017FD62B60021204600F004F948B96946F4
:1064580004F5A07010F0E2FE684610F03BFC0AB0AC
:1064680010BD6A460021204600F006F9EFE700BF9C
:10647800036818470B680360704700BF0B68036028
:10648800704700BF704700BF10B5044614F094F879
:10649800204610BD014B1868FFF7CABFD4C90020B9
:1064A80070B54FF47A74D0F83C51154A8CB005FB9E
:1064B80004F4144B14499442009302911DD802AE7F
:1064C80008A806933146FFF7D5FF45F6C05306A93D
:1064D8000E4803FB05F2013A13F0ECFF069B08A8EF
:1064E800DB689847009BDB68304698472146084898
:1064F8000CB0BDE87040FDF7B7B8064B02AEF3E745
:10650800AAAAAA0A08410020F5440000485A002017
:10651800781E0020E5440000024A0349034815F0AC
:10652800FFBE00BF585A0020E9440000485A002026
:1065380010B5094B044640F8D03BD4F8D0305B681E
:106548009847636E04F164005B68984720460DF035
:1065580031FC204610BD00BFAC40002010B50446F9
:10656800FFF7E6FF4FF49E71204614F081FB2046AA
:1065780010BD00BFF0B5044699B00DF081FC1E4E69
:1065880004F1640704F108021C4DD0343846019226
:106598000AF012FA02A8FCF713FE314602A8029587
:1065A800FCF776FE019A0023154902A8FCF73EFE87
:1065B80003A9384613F0C4FC02A80295FCF70AFEAA
:1065C800204600F0F9F902A8FCF7FAFD314602A8C6
:1065D8000295FCF75DFE019A00230A4902A8FCF720
:1065E80025FE03A9204613F0ABFC02A80295FCF790
:1065F800F1FD19B0F0BD00BF2C1D0020802B00203C
:10660800302100204C21002070B50D1E044616468E
:1066180003DD4B220548FCF7D7FF6C23314603FB0B
:106628000540BDE8704064300AF04AB9CC2000202B
:1066380010B504460DF016FC054B204640F8643BA7
:106648000AF032F904F1D00000F078F9204610BDC4
:10665800AC40002038B50D1E044603DD9F220548D6
:10666800FCF7B2FF6C2303FB0540BDE838406430FB
:1066780013F0BCBBCC20002070B50D1E0446164696
:1066880003DDBC220548FCF79FFF6C23314603FB62
:106698000540BDE8704064300AF022B9CC200020E3
:1066A8004221034808B5FCF781FF002008BD00BF60
:1066B800800E0020034B10B50446036013F0D0FA97
:1066C800204610BDF0370020054B10B50446036086
:1066D80013F0C6FA7021204614F0CAFA204610BDFD
:1066E800F037002010B5044613F0AAFA024A002336
:1066F80020462260E36610BDF037002070B50446DE
:106708000D46164621B14EB16566E666E56570BD73
:1067180025210648FCF74AFF002EF5D1262103481B
:10672800FCF744FF6566E666E56570BD800E0020EF
:1067380013F0AEBA0B4601791846FBF7C5BF00BF88
:1067480010B50A4682B0044601A91046FCF796FA2D
:1067580038B99DF80420032A227194BF002301232D
:10676800980002B010BD00BF70B5A2B004461A4E22
:106778000D466846FCF724FD184968460096FCF764
:1067880087FD2379032B22D8DFE803F01C171202B8
:1067980013496846FCF77CFD237901AA114928466C
:1067A800FCF744FD68460096FCF714FD22B070BD66
:1067B8000D496846FCF76CFDEEE70C496846FCF7A6
:1067C80067FDE9E70A496846FCF762FDE4E709491D
:1067D8006846FCF75DFDDFE7DC3200202C1D002059
:1067E8005424002070240020442400203824002051
:1067F8003024002064240020034B10B504460360B5
:10680800FBF76CFE204610BD48370020054B10B53D
:1068180004460360FBF762FE0821204614F028FABC
:10682800204610BD483700200B790371704700BF20
:106838004221034808B5FCF7B9FE002008BD00BF97
:10684800C80E0020034B10B50446036013F026FA67
:10685800204610BD30380020054B10B504460360B3
:1068680013F01CFA6C21204614F002FA204610BDE1
:1068780030380020034B10B50446036013F0F0F9DC
:10688800204610BD10380020054B10B504460360A3
:1068980013F0E6F97021204614F0EAF9204610BDFD
:1068A8001038002010B5044613F0CAF9024A002334
:1068B80020462260E36610BD1038002070B50446FB
:1068C8000D46164621B14EB16566E666E56570BDB2
:1068D80025210648FCF76AFE002EF5D1262103483B
:1068E800FCF764FE6566E666E56570BDC80E0020C7
:1068F80070B50C4682B005460846019213F07CFA42
:10690800626E019B42B1E66E76B12846D4E919124F
:10691800B047284602B070BD34210748FCF746FE50
:10692800E66E019B002EF0D1352103480193FCF758
:106938003DFEE66E019BE8E7C80E002010B5044650
:1069480013F0C4F9024A002320462260A36610BD52
:106958003038002038B504460D4621B10023A5661D
:10696800E565636638BD5D210148FCF71FFEF5E764
:10697800C80E002030B50C4683B005460846019283
:1069880013F03AFAA16E019A29B12846FFF7B0FF31
:10699800284603B030BD6E210548FCF707FE28469F
:1069A800A16E019AFFF7A4FF284603B030BD00BFCF
:1069B800C80E002013F06CB913F094B9034B10B54E
:1069C8000446036000F02AFB204610BDBC3F0020AF
:1069D800064B10B50446036000F020FB4FF47471B9
:1069E800204614F045F9204610BD00BFBC3F0020EA
:1069F8002DE9F04F4FF0030881B0DFF874B09146ED
:106A0800DFF870A013F0F2FF0446FBF76BFC0646B4
:106A18000F4613F0EBFFABFB0423ABFB00259B0CED
:106A2800AD0C0AFB13440AFB1505AC4202D3B8F1BE
:106A38000108E7D1FBF7D2FC6FF0010201284FF003
:106A480000030CBF01240224B242BB4108DB2B46E1
:106A580032462146484601B0BDE8F04F12F02EBF3D
:106A680027210248FCF7A2FDF1E700BFD81D00204E
:106A780083DE1B4340420F0010B5044600F0A4FA21
:106A8800014B2046236010BDBC3F00202DE9F0419A
:106A98008EB016460D4604469DF85820014606A8B5
:106AA8009DF850709DF854800593049200F09AFC6C
:106AB80000966FF0004641463846B54228BF354635
:106AC800DDE904230195FBF757FC21460AA800F0ED
:106AD80089FC06A812F01AFF014606A8059112F0D3
:106AE80017FF049006A812F015FF05460AA812F031
:106AF8000DFF06460AA812F00BFF07460AA812F077
:106B080009FFC3B22046DDE904210293EBB2CDE9C7
:106B1800006700F06BFB0AA812F042FE06A812F00C
:106B28003FFE0EB0BDE8F08110B49DF80840114654
:106B38001A469DF8043001949DF80C4002949DF883
:106B4800104003945DF8044BFFF7A0BFF0B587B081
:106B58000C46194615469DF8383006469DF83020F3
:106B680000939DF83C300E4F01939DF840300293FE
:106B78009DF83430FFF78AFF04A8FBF7A9FC00232F
:106B880030462A4621468DF8143004AB049700F0AD
:106B98007FFA04A80497FBF7A1FC07B0F0BD00BF7B
:106BA800EC2B00202DE9F04782B00D46164604462E
:106BB8009DF828709DF82C809DF830909DF834A0A1
:106BC800B8B1002D07DD4FF4147229460D48019322
:106BD800FCF7FAFC019B294620463246CDE90C9A7F
:106BE800CDE90A7825686C69A44602B0BDE8F0478B
:106BF800604740F2ED3103480193FCF7D7FC019B55
:106C0800DFE700BF441F002070B50D460446164656
:106C180078B1002D05DD4FF40E7229460848FCF7BF
:106C2800D3FC23683246294620461B69BDE87040DC
:106C3800184740F2D9310248FCF7B8FCE9E700BF31
